{
  "_format": "hh-sol-artifact-1",
  "contractName": "DVotes",
  "sourceName": "contracts/DVotes.sol",
  "abi": [
    {
      "anonymous": false,
      "inputs": [
        {
          "indexed": false,
          "internalType": "uint256",
          "name": "pollID",
          "type": "uint256"
        }
      ],
      "name": "AddedOption",
      "type": "event"
    },
    {
      "anonymous": false,
      "inputs": [],
      "name": "PollCreated",
      "type": "event"
    },
    {
      "anonymous": false,
      "inputs": [],
      "name": "PollDeleted",
      "type": "event"
    },
    {
      "anonymous": false,
      "inputs": [
        {
          "indexed": false,
          "internalType": "uint256",
          "name": "pollID",
          "type": "uint256"
        }
      ],
      "name": "PollFinished",
      "type": "event"
    },
    {
      "anonymous": false,
      "inputs": [
        {
          "indexed": false,
          "internalType": "uint256",
          "name": "pollID",
          "type": "uint256"
        }
      ],
      "name": "VoteCanceled",
      "type": "event"
    },
    {
      "anonymous": false,
      "inputs": [
        {
          "indexed": false,
          "internalType": "uint256",
          "name": "pollID",
          "type": "uint256"
        }
      ],
      "name": "Voted",
      "type": "event"
    },
    {
      "inputs": [
        {
          "internalType": "uint256",
          "name": "_pollID",
          "type": "uint256"
        },
        {
          "internalType": "string",
          "name": "_optionName",
          "type": "string"
        },
        {
          "internalType": "string",
          "name": "_optionPicIPFSHash",
          "type": "string"
        }
      ],
      "name": "addOption",
      "outputs": [],
      "stateMutability": "nonpayable",
      "type": "function"
    },
    {
      "inputs": [
        {
          "internalType": "uint256",
          "name": "_pollID",
          "type": "uint256"
        }
      ],
      "name": "cancelVote",
      "outputs": [],
      "stateMutability": "nonpayable",
      "type": "function"
    },
    {
      "inputs": [
        {
          "internalType": "string",
          "name": "_title",
          "type": "string"
        },
        {
          "internalType": "string",
          "name": "_description",
          "type": "string"
        },
        {
          "internalType": "string[]",
          "name": "_optionsNames",
          "type": "string[]"
        },
        {
          "internalType": "string[]",
          "name": "_optionsPics",
          "type": "string[]"
        }
      ],
      "name": "createPoll",
      "outputs": [
        {
          "internalType": "uint256",
          "name": "",
          "type": "uint256"
        }
      ],
      "stateMutability": "nonpayable",
      "type": "function"
    },
    {
      "inputs": [
        {
          "internalType": "uint256",
          "name": "_id",
          "type": "uint256"
        }
      ],
      "name": "deletePoll",
      "outputs": [],
      "stateMutability": "nonpayable",
      "type": "function"
    },
    {
      "inputs": [
        {
          "internalType": "uint256",
          "name": "_id",
          "type": "uint256"
        }
      ],
      "name": "finishPoll",
      "outputs": [],
      "stateMutability": "nonpayable",
      "type": "function"
    },
    {
      "inputs": [
        {
          "internalType": "uint256",
          "name": "_pollID",
          "type": "uint256"
        },
        {
          "internalType": "uint256",
          "name": "_optionID",
          "type": "uint256"
        }
      ],
      "name": "getOption",
      "outputs": [
        {
          "components": [
            {
              "internalType": "uint256",
              "name": "ID",
              "type": "uint256"
            },
            {
              "internalType": "string",
              "name": "Name",
              "type": "string"
            },
            {
              "internalType": "string",
              "name": "IPFSPicHash",
              "type": "string"
            },
            {
              "internalType": "uint256",
              "name": "Votes",
              "type": "uint256"
            }
          ],
          "internalType": "struct DVotes.Option",
          "name": "",
          "type": "tuple"
        }
      ],
      "stateMutability": "view",
      "type": "function"
    },
    {
      "inputs": [
        {
          "internalType": "uint256",
          "name": "_pollID",
          "type": "uint256"
        }
      ],
      "name": "getOptions",
      "outputs": [
        {
          "components": [
            {
              "internalType": "uint256",
              "name": "ID",
              "type": "uint256"
            },
            {
              "internalType": "string",
              "name": "Name",
              "type": "string"
            },
            {
              "internalType": "string",
              "name": "IPFSPicHash",
              "type": "string"
            },
            {
              "internalType": "uint256",
              "name": "Votes",
              "type": "uint256"
            }
          ],
          "internalType": "struct DVotes.Option[]",
          "name": "",
          "type": "tuple[]"
        }
      ],
      "stateMutability": "view",
      "type": "function"
    },
    {
      "inputs": [
        {
          "internalType": "uint256",
          "name": "_pollID",
          "type": "uint256"
        }
      ],
      "name": "getPoll",
      "outputs": [
        {
          "components": [
            {
              "internalType": "uint256",
              "name": "ID",
              "type": "uint256"
            },
            {
              "internalType": "address",
              "name": "initiator",
              "type": "address"
            },
            {
              "internalType": "string",
              "name": "title",
              "type": "string"
            },
            {
              "internalType": "string",
              "name": "description",
              "type": "string"
            },
            {
              "internalType": "uint256",
              "name": "voteCount",
              "type": "uint256"
            },
            {
              "internalType": "uint256",
              "name": "optionCount",
              "type": "uint256"
            },
            {
              "internalType": "bool",
              "name": "finished",
              "type": "bool"
            }
          ],
          "internalType": "struct DVotes.Poll",
          "name": "",
          "type": "tuple"
        }
      ],
      "stateMutability": "view",
      "type": "function"
    },
    {
      "inputs": [
        {
          "internalType": "uint256",
          "name": "_offset",
          "type": "uint256"
        },
        {
          "internalType": "uint256",
          "name": "_limit",
          "type": "uint256"
        }
      ],
      "name": "getPolls",
      "outputs": [
        {
          "components": [
            {
              "internalType": "uint256",
              "name": "ID",
              "type": "uint256"
            },
            {
              "internalType": "address",
              "name": "initiator",
              "type": "address"
            },
            {
              "internalType": "string",
              "name": "title",
              "type": "string"
            },
            {
              "internalType": "string",
              "name": "description",
              "type": "string"
            },
            {
              "internalType": "uint256",
              "name": "voteCount",
              "type": "uint256"
            },
            {
              "internalType": "uint256",
              "name": "optionCount",
              "type": "uint256"
            },
            {
              "internalType": "bool",
              "name": "finished",
              "type": "bool"
            }
          ],
          "internalType": "struct DVotes.Poll[]",
          "name": "",
          "type": "tuple[]"
        }
      ],
      "stateMutability": "view",
      "type": "function"
    },
    {
      "inputs": [
        {
          "internalType": "uint256",
          "name": "_pollID",
          "type": "uint256"
        }
      ],
      "name": "getVotedOption",
      "outputs": [
        {
          "internalType": "uint256",
          "name": "",
          "type": "uint256"
        }
      ],
      "stateMutability": "view",
      "type": "function"
    },
    {
      "inputs": [
        {
          "internalType": "uint256",
          "name": "_pollID",
          "type": "uint256"
        },
        {
          "internalType": "uint256",
          "name": "_optionID",
          "type": "uint256"
        }
      ],
      "name": "getVotesPerOption",
      "outputs": [
        {
          "internalType": "uint256",
          "name": "",
          "type": "uint256"
        }
      ],
      "stateMutability": "view",
      "type": "function"
    },
    {
      "inputs": [
        {
          "internalType": "uint256",
          "name": "_pollID",
          "type": "uint256"
        },
        {
          "internalType": "uint256",
          "name": "_optID",
          "type": "uint256"
        }
      ],
      "name": "vote",
      "outputs": [],
      "stateMutability": "nonpayable",
      "type": "function"
    }
  ],
  "bytecode": "0x6080604052600060045534801561001557600080fd5b50612d41806100256000396000f3fe608060405234801561001057600080fd5b50600436106100b45760003560e01c80636f0ef949116100715780636f0ef949146101b15780638915b3fb146101cd57806399b3141b146101fd578063b384abef1461022d578063bacbe2da14610249578063c48048d414610265576100b4565b8063045bb4d1146100b95780630c2e0359146100e95780631a8cbcaa146101195780631ce30927146101495780631f35b51d1461017957806329c4770914610195575b600080fd5b6100d360048036038101906100ce9190611de6565b610295565b6040516100e09190611e35565b60405180910390f35b61010360048036038101906100fe9190611de6565b6102c7565b60405161011091906120b0565b60405180910390f35b610133600480360381019061012e91906120d2565b6108ac565b60405161014091906121a2565b60405180910390f35b610163600480360381019061015e9190611de6565b610a8b565b604051610170919061222e565b60405180910390f35b610193600480360381019061018e91906120d2565b610c02565b005b6101af60048036038101906101aa91906120d2565b610e5a565b005b6101cb60048036038101906101c69190612385565b610fcc565b005b6101e760048036038101906101e291906120d2565b6111f0565b6040516101f4919061253c565b60405180910390f35b610217600480360381019061021291906120d2565b611430565b6040516102249190611e35565b60405180910390f35b61024760048036038101906102429190611de6565b61148a565b005b610263600480360381019061025e91906120d2565b6116ba565b005b61027f600480360381019061027a91906125be565b611937565b60405161028c9190611e35565b60405180910390f35b600060036000848152602001908152602001600020600083815260200190815260200160002060030154905092915050565b606060006004540361032f57600067ffffffffffffffff8111156102ee576102ed61225a565b5b60405190808252806020026020018201604052801561032757816020015b610314611cc2565b81526020019060019003908161030c5790505b5090506108a6565b600454831061033d57600092505b606482111561034b57606491505b60606004546001848661035e91906126cc565b6103689190612700565b111561060e578360045461037c9190612700565b67ffffffffffffffff8111156103955761039461225a565b5b6040519080825280602002602001820160405280156103ce57816020015b6103bb611cc2565b8152602001906001900390816103b35790505b50905060006001856103e091906126cc565b90505b6004548111610604576000808281526020019081526020016000206040518060e0016040529081600082015481526020016001820160009054906101000a900473ffffffffffffffffffffffffffffffffffffffff1673ffffffffffffffffffffffffffffffffffffffff1673ffffffffffffffffffffffffffffffffffffffff16815260200160028201805461047990612763565b80601f01602080910402602001604051908101604052809291908181526020018280546104a590612763565b80156104f25780601f106104c7576101008083540402835291602001916104f2565b820191906000526020600020905b8154815290600101906020018083116104d557829003601f168201915b5050505050815260200160038201805461050b90612763565b80601f016020809104026020016040519081016040528092919081815260200182805461053790612763565b80156105845780601f1061055957610100808354040283529160200191610584565b820191906000526020600020905b81548152906001019060200180831161056757829003601f168201915b5050505050815260200160048201548152602001600582015481526020016006820160009054906101000a900460ff161515151581525050826001876105ca91906126cc565b836105d59190612700565b815181106105e6576105e5612794565b5b602002602001018190525080806105fc906127c3565b9150506103e3565b50809150506108a6565b8267ffffffffffffffff8111156106285761062761225a565b5b60405190808252806020026020018201604052801561066157816020015b61064e611cc2565b8152602001906001900390816106465790505b509050600060018561067391906126cc565b90505b838561068291906126cc565b81116108a0576000808281526020019081526020016000206040518060e0016040529081600082015481526020016001820160009054906101000a900473ffffffffffffffffffffffffffffffffffffffff1673ffffffffffffffffffffffffffffffffffffffff1673ffffffffffffffffffffffffffffffffffffffff16815260200160028201805461071590612763565b80601f016020809104026020016040519081016040528092919081815260200182805461074190612763565b801561078e5780601f106107635761010080835404028352916020019161078e565b820191906000526020600020905b81548152906001019060200180831161077157829003601f168201915b505050505081526020016003820180546107a790612763565b80601f01602080910402602001604051908101604052809291908181526020018280546107d390612763565b80156108205780601f106107f557610100808354040283529160200191610820565b820191906000526020600020905b81548152906001019060200180831161080357829003601f168201915b5050505050815260200160048201548152602001600582015481526020016006820160009054906101000a900460ff1615151515815250508260018761086691906126cc565b836108719190612700565b8151811061088257610881612794565b5b60200260200101819052508080610898906127c3565b915050610676565b50809150505b92915050565b6108b4611cc2565b6000808381526020019081526020016000206040518060e0016040529081600082015481526020016001820160009054906101000a900473ffffffffffffffffffffffffffffffffffffffff1673ffffffffffffffffffffffffffffffffffffffff1673ffffffffffffffffffffffffffffffffffffffff16815260200160028201805461094190612763565b80601f016020809104026020016040519081016040528092919081815260200182805461096d90612763565b80156109ba5780601f1061098f576101008083540402835291602001916109ba565b820191906000526020600020905b81548152906001019060200180831161099d57829003601f168201915b505050505081526020016003820180546109d390612763565b80601f01602080910402602001604051908101604052809291908181526020018280546109ff90612763565b8015610a4c5780601f10610a2157610100808354040283529160200191610a4c565b820191906000526020600020905b815481529060010190602001808311610a2f57829003601f168201915b5050505050815260200160048201548152602001600582015481526020016006820160009054906101000a900460ff1615151515815250509050919050565b610a93611d17565b60036000848152602001908152602001600020600083815260200190815260200160002060405180608001604052908160008201548152602001600182018054610adc90612763565b80601f0160208091040260200160405190810160405280929190818152602001828054610b0890612763565b8015610b555780601f10610b2a57610100808354040283529160200191610b55565b820191906000526020600020905b815481529060010190602001808311610b3857829003601f168201915b50505050508152602001600282018054610b6e90612763565b80601f0160208091040260200160405190810160405280929190818152602001828054610b9a90612763565b8015610be75780601f10610bbc57610100808354040283529160200191610be7565b820191906000526020600020905b815481529060010190602001808311610bca57829003601f168201915b50505050508152602001600382015481525050905092915050565b8060008082815260200190815260200160002060010160009054906101000a900473ffffffffffffffffffffffffffffffffffffffff1673ffffffffffffffffffffffffffffffffffffffff163373ffffffffffffffffffffffffffffffffffffffff1614610ca6576040517f08c379a0000000000000000000000000000000000000000000000000000000008152600401610c9d90612868565b60405180910390fd5b8160008082815260200190815260200160002060060160009054906101000a900460ff1615610d0a576040517f08c379a0000000000000000000000000000000000000000000000000000000008152600401610d01906128d4565b60405180910390fd5b60008060008581526020019081526020016000206005015490506000808581526020019081526020016000206000808201600090556001820160006101000a81549073ffffffffffffffffffffffffffffffffffffffff0219169055600282016000610d769190611d3f565b600382016000610d869190611d3f565b600482016000905560058201600090556006820160006101000a81549060ff0219169055505060005b81811015610e2757600360008681526020019081526020016000206000600183610dd991906126cc565b8152602001908152602001600020600080820160009055600182016000610e009190611d3f565b600282016000610e109190611d3f565b600382016000905550508080600101915050610daf565b507fcf270fb3c5025f188fda7dbab3ceb44999df5881ddb2775cf23aca40ca942daf60405160405180910390a150505050565b8060008082815260200190815260200160002060010160009054906101000a900473ffffffffffffffffffffffffffffffffffffffff1673ffffffffffffffffffffffffffffffffffffffff163373ffffffffffffffffffffffffffffffffffffffff1614610efe576040517f08c379a0000000000000000000000000000000000000000000000000000000008152600401610ef590612868565b60405180910390fd5b8160008082815260200190815260200160002060060160009054906101000a900460ff1615610f62576040517f08c379a0000000000000000000000000000000000000000000000000000000008152600401610f59906128d4565b60405180910390fd5b600160008085815260200190815260200160002060060160006101000a81548160ff0219169083151502179055507f614e1f45fd347c38c0e483f832d94765a29012fe98cf36361cecc044f9ae191783604051610fbf9190611e35565b60405180910390a1505050565b8260008082815260200190815260200160002060010160009054906101000a900473ffffffffffffffffffffffffffffffffffffffff1673ffffffffffffffffffffffffffffffffffffffff163373ffffffffffffffffffffffffffffffffffffffff1614611070576040517f08c379a000000000000000000000000000000000000000000000000000000000815260040161106790612868565b60405180910390fd5b8360008082815260200190815260200160002060060160009054906101000a900460ff16156110d4576040517f08c379a00000000000000000000000000000000000000000000000000000000081526004016110cb906128d4565b60405180910390fd5b60008086815260200190815260200160002060050160008154809291906110fa906127c3565b91905055506040518060800160405280600080888152602001908152602001600020600501548152602001858152602001848152602001600081525060036000878152602001908152602001600020600080600089815260200190815260200160002060050154815260200190815260200160002060008201518160000155602082015181600101908161118e9190612aa0565b5060408201518160020190816111a49190612aa0565b50606082015181600301559050507f7aec3210709bac34f4d9fd72fdde8d33ff47b599cce0942369716a4f5519b43f856040516111e19190611e35565b60405180910390a15050505050565b606060008060008481526020019081526020016000206005015467ffffffffffffffff8111156112235761122261225a565b5b60405190808252806020026020018201604052801561125c57816020015b611249611d17565b8152602001906001900390816112415790505b5090506000600190505b60008085815260200190815260200160002060050154811161142657600360008581526020019081526020016000206000828152602001908152602001600020604051806080016040529081600082015481526020016001820180546112cb90612763565b80601f01602080910402602001604051908101604052809291908181526020018280546112f790612763565b80156113445780601f1061131957610100808354040283529160200191611344565b820191906000526020600020905b81548152906001019060200180831161132757829003601f168201915b5050505050815260200160028201805461135d90612763565b80601f016020809104026020016040519081016040528092919081815260200182805461138990612763565b80156113d65780601f106113ab576101008083540402835291602001916113d6565b820191906000526020600020905b8154815290600101906020018083116113b957829003601f168201915b50505050508152602001600382015481525050826001836113f79190612700565b8151811061140857611407612794565b5b6020026020010181905250808061141e906127c3565b915050611266565b5080915050919050565b60006001600083815260200190815260200160002060003373ffffffffffffffffffffffffffffffffffffffff1673ffffffffffffffffffffffffffffffffffffffff168152602001908152602001600020549050919050565b8160008082815260200190815260200160002060060160009054906101000a900460ff16156114ee576040517f08c379a00000000000000000000000000000000000000000000000000000000081526004016114e5906128d4565b60405180910390fd5b826002600082815260200190815260200160002060003373ffffffffffffffffffffffffffffffffffffffff1673ffffffffffffffffffffffffffffffffffffffff16815260200190815260200160002060009054906101000a900460ff161561155757600080fd5b60016002600086815260200190815260200160002060003373ffffffffffffffffffffffffffffffffffffffff1673ffffffffffffffffffffffffffffffffffffffff16815260200190815260200160002060006101000a81548160ff021916908315150217905550826001600086815260200190815260200160002060003373ffffffffffffffffffffffffffffffffffffffff1673ffffffffffffffffffffffffffffffffffffffff16815260200190815260200160002081905550600360008581526020019081526020016000206000848152602001908152602001600020600301600081548092919061164d906127c3565b91905055506000808581526020019081526020016000206004016000815480929190611678906127c3565b91905055507f7f511e347bf51eed3be100b3194247d5207f05f3b33de7d31e3e8ee73199a049846040516116ac9190611e35565b60405180910390a150505050565b806002600082815260200190815260200160002060003373ffffffffffffffffffffffffffffffffffffffff1673ffffffffffffffffffffffffffffffffffffffff16815260200190815260200160002060009054906101000a900460ff1661172257600080fd5b8160008082815260200190815260200160002060060160009054906101000a900460ff1615611786576040517f08c379a000000000000000000000000000000000000000000000000000000000815260040161177d906128d4565b60405180910390fd5b60006002600085815260200190815260200160002060003373ffffffffffffffffffffffffffffffffffffffff1673ffffffffffffffffffffffffffffffffffffffff16815260200190815260200160002060006101000a81548160ff0219169083151502179055506003600084815260200190815260200160002060006001600086815260200190815260200160002060003373ffffffffffffffffffffffffffffffffffffffff1673ffffffffffffffffffffffffffffffffffffffff168152602001908152602001600020548152602001908152602001600020600301600081548092919061187790612b72565b91905055506001600084815260200190815260200160002060003373ffffffffffffffffffffffffffffffffffffffff1673ffffffffffffffffffffffffffffffffffffffff1681526020019081526020016000206000905560008084815260200190815260200160002060040160008154809291906118f690612b72565b91905055507fd7a1299a936f242e76e6b1d1bb9b1d377afacb743d2a4cb9ef010e24978dc1598360405161192a9190611e35565b60405180910390a1505050565b6000828290508585905014611981576040517f08c379a000000000000000000000000000000000000000000000000000000000815260040161197890612c0d565b60405180910390fd5b60028585905010156119c8576040517f08c379a00000000000000000000000000000000000000000000000000000000081526004016119bf90612c79565b60405180910390fd5b600460008154809291906119db906127c3565b919050555060005b85859050811015611b6c576040518060800160405280600183611a0691906126cc565b8152602001878784818110611a1e57611a1d612794565b5b9050602002810190611a309190612ca8565b8080601f016020809104026020016040519081016040528093929190818152602001838380828437600081840152601f19601f820116905080830192505050505050508152602001858584818110611a8b57611a8a612794565b5b9050602002810190611a9d9190612ca8565b8080601f016020809104026020016040519081016040528093929190818152602001838380828437600081840152601f19601f82011690508083019250505050505050815260200160008152506003600060045481526020019081526020016000206000600184611b0e91906126cc565b8152602001908152602001600020600082015181600001556020820151816001019081611b3b9190612aa0565b506040820151816002019081611b519190612aa0565b506060820151816003015590505080806001019150506119e3565b506040518060e0016040528060045481526020013373ffffffffffffffffffffffffffffffffffffffff168152602001888152602001878152602001600081526020018686905081526020016000151581525060008060045481526020019081526020016000206000820151816000015560208201518160010160006101000a81548173ffffffffffffffffffffffffffffffffffffffff021916908373ffffffffffffffffffffffffffffffffffffffff1602179055506040820151816002019081611c399190612aa0565b506060820151816003019081611c4f9190612aa0565b506080820151816004015560a0820151816005015560c08201518160060160006101000a81548160ff0219169083151502179055509050507ffa7bcc56128779d431ae8ffbdd93ea3eea3f3d0a8582d7e9cf9ab4e28c14c3a360405160405180910390a160045490509695505050505050565b6040518060e0016040528060008152602001600073ffffffffffffffffffffffffffffffffffffffff168152602001606081526020016060815260200160008152602001600081526020016000151581525090565b6040518060800160405280600081526020016060815260200160608152602001600081525090565b508054611d4b90612763565b6000825580601f10611d5d5750611d7c565b601f016020900490600052602060002090810190611d7b9190611d7f565b5b50565b5b80821115611d98576000816000905550600101611d80565b5090565b6000604051905090565b600080fd5b600080fd5b6000819050919050565b611dc381611db0565b8114611dce57600080fd5b50565b600081359050611de081611dba565b92915050565b60008060408385031215611dfd57611dfc611da6565b5b6000611e0b85828601611dd1565b9250506020611e1c85828601611dd1565b9150509250929050565b611e2f81611db0565b82525050565b6000602082019050611e4a6000830184611e26565b92915050565b600081519050919050565b600082825260208201905092915050565b6000819050602082019050919050565b611e8581611db0565b82525050565b600073ffffffffffffffffffffffffffffffffffffffff82169050919050565b6000611eb682611e8b565b9050919050565b611ec681611eab565b82525050565b600081519050919050565b600082825260208201905092915050565b60005b83811015611f06578082015181840152602081019050611eeb565b60008484015250505050565b6000601f19601f8301169050919050565b6000611f2e82611ecc565b611f388185611ed7565b9350611f48818560208601611ee8565b611f5181611f12565b840191505092915050565b60008115159050919050565b611f7181611f5c565b82525050565b600060e083016000830151611f8f6000860182611e7c565b506020830151611fa26020860182611ebd565b5060408301518482036040860152611fba8282611f23565b91505060608301518482036060860152611fd48282611f23565b9150506080830151611fe96080860182611e7c565b5060a0830151611ffc60a0860182611e7c565b5060c083015161200f60c0860182611f68565b508091505092915050565b60006120268383611f77565b905092915050565b6000602082019050919050565b600061204682611e50565b6120508185611e5b565b93508360208202850161206285611e6c565b8060005b8581101561209e578484038952815161207f858261201a565b945061208a8361202e565b925060208a01995050600181019050612066565b50829750879550505050505092915050565b600060208201905081810360008301526120ca818461203b565b905092915050565b6000602082840312156120e8576120e7611da6565b5b60006120f684828501611dd1565b91505092915050565b600060e0830160008301516121176000860182611e7c565b50602083015161212a6020860182611ebd565b50604083015184820360408601526121428282611f23565b9150506060830151848203606086015261215c8282611f23565b91505060808301516121716080860182611e7c565b5060a083015161218460a0860182611e7c565b5060c083015161219760c0860182611f68565b508091505092915050565b600060208201905081810360008301526121bc81846120ff565b905092915050565b60006080830160008301516121dc6000860182611e7c565b50602083015184820360208601526121f48282611f23565b9150506040830151848203604086015261220e8282611f23565b91505060608301516122236060860182611e7c565b508091505092915050565b6000602082019050818103600083015261224881846121c4565b905092915050565b600080fd5b600080fd5b7f4e487b7100000000000000000000000000000000000000000000000000000000600052604160045260246000fd5b61229282611f12565b810181811067ffffffffffffffff821117156122b1576122b061225a565b5b80604052505050565b60006122c4611d9c565b90506122d08282612289565b919050565b600067ffffffffffffffff8211156122f0576122ef61225a565b5b6122f982611f12565b9050602081019050919050565b82818337600083830152505050565b6000612328612323846122d5565b6122ba565b90508281526020810184848401111561234457612343612255565b5b61234f848285612306565b509392505050565b600082601f83011261236c5761236b612250565b5b813561237c848260208601612315565b91505092915050565b60008060006060848603121561239e5761239d611da6565b5b60006123ac86828701611dd1565b935050602084013567ffffffffffffffff8111156123cd576123cc611dab565b5b6123d986828701612357565b925050604084013567ffffffffffffffff8111156123fa576123f9611dab565b5b61240686828701612357565b9150509250925092565b600081519050919050565b600082825260208201905092915050565b6000819050602082019050919050565b60006080830160008301516124546000860182611e7c565b506020830151848203602086015261246c8282611f23565b915050604083015184820360408601526124868282611f23565b915050606083015161249b6060860182611e7c565b508091505092915050565b60006124b2838361243c565b905092915050565b6000602082019050919050565b60006124d282612410565b6124dc818561241b565b9350836020820285016124ee8561242c565b8060005b8581101561252a578484038952815161250b85826124a6565b9450612516836124ba565b925060208a019950506001810190506124f2565b50829750879550505050505092915050565b6000602082019050818103600083015261255681846124c7565b905092915050565b600080fd5b600080fd5b60008083601f84011261257e5761257d612250565b5b8235905067ffffffffffffffff81111561259b5761259a61255e565b5b6020830191508360208202830111156125b7576125b6612563565b5b9250929050565b600080600080600080608087890312156125db576125da611da6565b5b600087013567ffffffffffffffff8111156125f9576125f8611dab565b5b61260589828a01612357565b965050602087013567ffffffffffffffff81111561262657612625611dab565b5b61263289828a01612357565b955050604087013567ffffffffffffffff81111561265357612652611dab565b5b61265f89828a01612568565b9450945050606087013567ffffffffffffffff81111561268257612681611dab565b5b61268e89828a01612568565b92509250509295509295509295565b7f4e487b7100000000000000000000000000000000000000000000000000000000600052601160045260246000fd5b60006126d782611db0565b91506126e283611db0565b92508282019050808211156126fa576126f961269d565b5b92915050565b600061270b82611db0565b915061271683611db0565b925082820390508181111561272e5761272d61269d565b5b92915050565b7f4e487b7100000000000000000000000000000000000000000000000000000000600052602260045260246000fd5b6000600282049050600182168061277b57607f821691505b60208210810361278e5761278d612734565b5b50919050565b7f4e487b7100000000000000000000000000000000000000000000000000000000600052603260045260246000fd5b60006127ce82611db0565b91507fffffffffffffffffffffffffffffffffffffffffffffffffffffffffffffffff8203612800576127ff61269d565b5b600182019050919050565b600082825260208201905092915050565b7f596f75206d75737420626520696e69746961746f72206f6620706f6c6c000000600082015250565b6000612852601d8361280b565b915061285d8261281c565b602082019050919050565b6000602082019050818103600083015261288181612845565b9050919050565b7f506f6c6c206d75737420626520756e66696e6973686564000000000000000000600082015250565b60006128be60178361280b565b91506128c982612888565b602082019050919050565b600060208201905081810360008301526128ed816128b1565b9050919050565b60008190508160005260206000209050919050565b60006020601f8301049050919050565b600082821b905092915050565b6000600883026129567fffffffffffffffffffffffffffffffffffffffffffffffffffffffffffffffff82612919565b6129608683612919565b95508019841693508086168417925050509392505050565b6000819050919050565b600061299d61299861299384611db0565b612978565b611db0565b9050919050565b6000819050919050565b6129b783612982565b6129cb6129c3826129a4565b848454612926565b825550505050565b600090565b6129e06129d3565b6129eb8184846129ae565b505050565b5b81811015612a0f57612a046000826129d8565b6001810190506129f1565b5050565b601f821115612a5457612a25816128f4565b612a2e84612909565b81016020851015612a3d578190505b612a51612a4985612909565b8301826129f0565b50505b505050565b600082821c905092915050565b6000612a7760001984600802612a59565b1980831691505092915050565b6000612a908383612a66565b9150826002028217905092915050565b612aa982611ecc565b67ffffffffffffffff811115612ac257612ac161225a565b5b612acc8254612763565b612ad7828285612a13565b600060209050601f831160018114612b0a5760008415612af8578287015190505b612b028582612a84565b865550612b6a565b601f198416612b18866128f4565b60005b82811015612b4057848901518255600182019150602085019450602081019050612b1b565b86831015612b5d5784890151612b59601f891682612a66565b8355505b6001600288020188555050505b505050505050565b6000612b7d82611db0565b915060008203612b9057612b8f61269d565b5b600182039050919050565b7f416d6f756e7473206f66206f7074696f6e206e616d657320616e64207069637460008201527f75726573206d75737420626520657175616c0000000000000000000000000000602082015250565b6000612bf760328361280b565b9150612c0282612b9b565b604082019050919050565b60006020820190508181036000830152612c2681612bea565b9050919050565b7f4d696e696d756d2074776f206f7074696f6e7300000000000000000000000000600082015250565b6000612c6360138361280b565b9150612c6e82612c2d565b602082019050919050565b60006020820190508181036000830152612c9281612c56565b9050919050565b600080fd5b600080fd5b600080fd5b60008083356001602003843603038112612cc557612cc4612c99565b5b80840192508235915067ffffffffffffffff821115612ce757612ce6612c9e565b5b602083019250600182023603831315612d0357612d02612ca3565b5b50925092905056fea26469706673582212206707db569b094a1c6219ef33f273c21f05a8a7f9f66ef2b82177750159b4f14564736f6c63430008180033",
  "linkReferences": {},
  "deployedLinkReferences": {}
}